:100000000C9485000C94A5000C94A5000C94A500FC
:100010000C94A5000C94A5000C94A5000C94A500CC
:100020000C94A5000C94A5000C94A5000C94A500BC
:100030000C94A5000C94A5000C94A5000C94A500AC
:100040000C94A5000C94A5000C94C4000C94A5007D
:100050000C94A5000C94A5000C94A5000C94A5008C
:100060000C94A5000C94A5000C94A5000C94A5007C
:100070000C94A5000C94A5000C94A5000C94A5006C
:100080000C94A5000C94A5000C94A5000000210080
:10009000240027002A0000002200250028002B0051
:1000A00000002000230026002900040402040402AA
:1000B0000201010101010103030404040403030319
:1000C000030303020202020201010102044080084C
:1000D0001001020408102002010408102004081076
:1000E000204080010220408040800000000706017F
:1000F00002000000000000000000000403000000F7
:100100000000000000000000000011241FBECFEF1F
:10011000D0E4DEBFCDBF11E0A0E0B1E0EAE3F5E05E
:1001200000E00BBF02C007900D92A230B107D9F7D3
:100130001BBE11E0A2E0B1E001C01D92AB30B107DF
:10014000E1F70E946C020C949B020C9400008091D9
:10015000000161E00E94390268EE73E080E090E007
:100160000E9454018091000160E00E94390268EE13
:1001700073E080E090E00E945401089580910001B6
:1001800061E00E94BC0108951F920F920FB60F927A
:1001900011242F933F938F939F93AF93BF9380919D
:1001A000060190910701A0910801B09109013091D9
:1001B0000A010196A11DB11D232F215B2D3720F0CF
:1001C0002D570196A11DB11D20930A0180930601B0
:1001D00090930701A0930801B09309018091020157
:1001E00090910301A0910401B09105010196A11D18
:1001F000B11D8093020190930301A0930401B09379
:100200000501BF91AF919F918F913F912F910F90D9
:100210000FBE0F901F901895789484B5826084BDAE
:1002200084B5816084BD85B5826085BD85B58160FA
:1002300085BDEEE6F0E0808181608083E1E8F0E05A
:100240001082808182608083808181608083E0E889
:10025000F0E0808181608083E1EBF0E08081846068
:100260008083E0EBF0E0808181608083E1E9F0E071
:10027000808182608083808181608083E0E9F0E01A
:10028000808181608083EAE7F0E080818460808300
:1002900080818260808380818160808380818068AA
:1002A00080831092C1000895EF92FF920F931F93E5
:1002B000CF93DF937B018C013FB7F89460910201EB
:1002C00070910301809104019091050126B5A89BCE
:1002D00006C02F3F21F06F5F7F4F8F4F9F4F3FBF73
:1002E000982F872F762F6627620F711D811D911D14
:1002F00026E030E040E050E00E947C02EB0130C09C
:100300000E947B023FB7F894609102017091030153
:10031000809104019091050126B5A89B06C02F3F4E
:1003200021F06F5F7F4F8F4F9F4F3FBF982F872FD9
:10033000762F6627620F711D811D911D26E030E02A
:1003400040E050E00E947C026C1B7D0B685E7340B5
:10035000B8F20894E108F10801091109C851DC4F0D
:10036000E114F1040105110559F6DF91CF911F91B8
:100370000F91FF90EF900895CF93DF93482F50E0B7
:10038000CA0186539F4FFC01349146555F4FFA01D5
:100390008491882369F190E0880F991FFC01E4574C
:1003A000FF4FA591B491FC01EA56FF4FC591D4913E
:1003B000662351F42FB7F8948C91932F909589234D
:1003C0008C93888189230BC0623061F42FB7F89435
:1003D0008C91932F909589238C938881832B88838C
:1003E0002FBF06C09FB7F8948C91832B8C939FBF2F
:1003F000DF91CF9108958430C9F0853038F4823090
:10040000F1F0833078F4813099F516C08730F9F037
:10041000883018F4863061F516C08830F1F08930E4
:1004200039F521C0809180008F7703C080918000D2
:100430008F7D80938000089584B58F7702C084B546
:100440008F7D84BD08958091B0008F7703C0809127
:10045000B0008F7D8093B0000895809190008F77D9
:10046000809390000895809190008F7D80939000FC
:100470000895FF920F931F93F62E482F50E0CA0164
:1004800086519F4FFC012491CA0186539F4FFC0166
:10049000149146555F4FFA0104910023C9F02223BD
:1004A00019F0822F0E94FB01E02FF0E0EE0FFF1FFA
:1004B000EA56FF4FA591B4919FB7F894FF2021F41D
:1004C0008C911095812302C08C91812B8C939FBFBE
:1004D0001F910F91FF900895CF93DF930E940C011D
:1004E0000E94BE00C0E0D0E00E94A7002097E1F388
:1004F0000E940000F9CF0895629FD001739FF00120
:10050000829FE00DF11D649FE00DF11D929FF00DA3
:10051000839FF00D749FF00D659FF00D9927729FDA
:10052000B00DE11DF91F639FB00DE11DF91FBD0165
:0A053000CF0111240895F894FFCFC5
:02053A000600B9
:00000001FF
